:020000040800F2
:10000000580E0020690100089904000895040008B2
:1000100000000000000000000000000000000000E0
:100020000000000000000000000000002708000899
:100030000000000000000000850500081D09000800
:100040007B0100087B010008250800087B010008EF
:100050007B0100087B0100087B010008BF0300084A
:100060007B0100087B0100087B0100087B01000880
:100070007B0100087B0100087B0100087B01000870
:100080007B0100087B010008000000007B010008E4
:100090007B0100087B0100087B0100087B01000850
:1000A0007B0100087B0100087B010008C1090008F2
:1000B0007B010008000000007B0100080000000038
:1000C00000F002F800F040F80CA030C808382418FE
:1000D0002D18A246671EAB4654465D46AC4201D180
:1000E00000F032F87E460F3E0FCCB6460126334272
:1000F00000D0FB1AA246AB4633431847E016000077
:1001000000170000103A02D378C878C1FAD8520715
:1001100001D330C830C101D504680C6070470000BD
:100120000023002400250026103A01D378C1FBD813
:10013000520700D330C100D50B6070471FB5C046D1
:10014000C0461FBD10B510BD00F009F91146FFF7FC
:10015000F5FF00F0ADFE00F021F903B4FFF7F2FF68
:1001600003BC00F025F90000074880470748004716
:10017000FEE7FEE7FEE7FEE7FEE7FEE70448054987
:10018000054A064B7047000045090008C1000008F9
:1001900058080020580E0020580A0020580A002055
:1001A000002203098B422CD3030A8B4211D3002374
:1001B0009C464EE003460B433CD4002243088B424E
:1001C00031D303098B421CD3030A8B4201D39446DB
:1001D0003FE0C3098B4201D3CB01C01A52418309CE
:1001E0008B4201D38B01C01A524143098B4201D388
:1001F0004B01C01A524103098B4201D30B01C01AB3
:100200005241C3088B4201D3CB00C01A524183082C
:100210008B4201D38B00C01A524143088B4201D359
:100220004B00C01A5241411A00D2014652411046B9
:1002300070475DE0CA0F00D04942031000D340422E
:10024000534000229C4603098B422DD3030A8B4264
:1002500012D3FC22890112BA030A8B420CD3890102
:1002600092118B4208D3890192118B4204D38901E8
:100270003AD0921100E08909C3098B4201D3CB0126
:10028000C01A524183098B4201D38B01C01A5241DB
:1002900043098B4201D34B01C01A524103098B42DF
:1002A00001D30B01C01A5241C3088B4201D3CB00CA
:1002B000C01A524183088B4201D38B00C01A5241AD
:1002C000D9D243088B4201D34B00C01A5241411A84
:1002D00000D20146634652415B10104601D34042B2
:1002E000002B00D54942704763465B1000D3404263
:1002F00001B50020C046C04602BD70477047704738
:100300001F22030C02D10F2200041CD0030E01D1C6
:10031000083A0002030F01D1121F0001830F01D11F
:10032000921E8000002801DB521E4000D2055118A9
:10033000021251181922904004D3491C002801D1FF
:100340004908490008467047C10FC90700D040421C
:10035000012292071143D3E701218907D0E77546AF
:1003600000F022F8AE46050069465346C008C000BA
:10037000854618B020B5FFF701FF60BC002749088B
:10038000B6460026C0C5C0C5C0C5C0C5C0C5C0C52D
:10039000C0C5C0C5403D49008D4670470446C046B3
:1003A000C0462046FFF7D9FE00487047F4070020FA
:1003B00001491820ABBEFEE72600020070477047D7
:1003C000F0B50A4600210023002400BF3DE00125CE
:1003D0008D402B4615681D402C469C4234D1157922
:1003E000012D02D01579022D16D185684F00032604
:1003F000BE40B543856055794E00B54086683543AB
:100400008560858801268E40B543858085889679EC
:100410008E40B6B23543858005684F000326BE4046
:10042000B543056015794E00B54006683543056053
:10043000C5684F000326BE40B543C560D5794E0060
:10044000B540C6683543C560491C1029BFD3F0BD0F
:10045000F0B5002300244D07EE0E1546B5402B469F
:10046000CD10AE0005462035AD594E07F70E0F26CC
:10047000BE40B543CE10B60007462037BD51CD1063
:10048000AE003D46AD591D432C46CD10AD003E4655
:100490007451F0BD00BFFEE7704700000021827874
:1004A000002A27D0184A03231B02D21803789B1076
:1004B0009B00D15802789207D30EFF229A400B4638
:1004C0009343194642789207120E03789B07DB0E7E
:1004D0009A4011430C4A03231B02D21803789B1045
:1004E0009B00D1500278D306DB0E01229A40064BC6
:1004F0001A6007E00278D306DB0E01229A40024B15
:1005000080331A607047000000E100E010B5002859
:1005100019DA1A4A03071B0F083B9B089B00D258A5
:100520008307DC0EFF23A3409A438B071B0E84072F
:10053000E40EA3401A43114B0407240F083CA408FF
:10054000A4001A5118E00E4A03231B02D218830894
:100550009B00D2588307DC0EFF23A3409A438B07EE
:100560001B0E8407E40EA3401A43054B0324240208
:100570001B198408A4001A5110BD00001CED00E0F6
:1005800000E100E070470000002905D0054A5269EB
:100590000243044B5A6104E0024A52698243014B10
:1005A0005A61704700100240002905D0054A92693F
:1005B0000243044B9A6104E0024A92698243014B70
:1005C0009A6170470010024010B50521C90400204F
:1005D00000F008F9012000F0F1F800BF192000F048
:1005E000C1F80028FAD0022000F00EF900BF00F098
:1005F000DDF80828FBD110BDFEB504460025002615
:100600000020019000900027504840680C210840CD
:100610000546002D04D0042D05D0082D28D105E075
:100620004B48206027E04A48206024E04748406863
:100630000F21890408400646444840680121090406
:1006400008400190B00C861C0198002803D1414855
:10065000704320600BE03D48C06A0007000F401C5B
:1006600000903B480099FFF79BFD7043206002E03B
:100670003748206000BF00BF34484068F021084080
:1006800005462D093448475D2068F84060602F48D2
:10069000406807210902084005462D0A2E48475D9B
:1006A0006068F840A0602948006BFF2101310840D4
:1006B000884202D02948E0600DE0244840680121CA
:1006C00089030840884203D0A0684008E06002E047
:1006D000A0688008E0601D48006B40210840402869
:1006E00002D01F48206102E00120C00320611748AA
:1006F000006B10210840102802D01548606101E00D
:10070000206860611148006B8007800F02D1A068EB
:10071000A06119E00D48006B8007800F012802D10D
:100720002068A06110E00948006B8007800F022854
:1007300002D18003A06107E00448006B8007800FAE
:10074000032801D10248A061FEBD00000010024054
:1007500000127A0000093D0030000020809FD50083
:100760001280000010B50246002100230020511124
:10077000002902D10C4C23680BE0012902D10A4C5C
:10078000236A06E0022902D1074C636A01E0064CA5
:10079000636BD106C90E01248C401C4201D001209C
:1007A00000E0002010BD0000001002400248406838
:1007B0000C2108407047000000100240002807D0BC
:1007C00007490968012212061143054A116006E033
:1007D00003490968012212069143014A11607047DA
:1007E00000100240074A52683D231B049A43054B00
:1007F0005A601A46526803460B431A43014B5A602B
:10080000704700000010024001460020044A506872
:100810008008800002460A431046014A5060704733
:1008200000100240704770470CB500200190009006
:10083000384800680121090408433649086000BFB0
:100840003448006801214904084000900198401C88
:1008500001900098002804D10521090201988842DE
:10086000EED12C48006801214904084202D0012041
:10087000009001E0002000900098012842D1264815
:1008800000681021084324490860084600680121D7
:100890000843214908601F4840681E4948600846CF
:1008A00040684860084640683F2109048843194968
:1008B000486008464068112109040843154948600A
:1008C000084600680121090608431249086000BF74
:1008D00010480068012149060842F9D00D484068D7
:1008E000800880000B4948600846406802210843A0
:1008F0000849486000BF074840680C2108400828A4
:10090000F9D106E003480068012109048843014940
:1009100008600CBD0010024000200240074800881B
:10092000401C0649088006480078401CC0B20449B3
:100930000870142801DB00200870704718000020A0
:100940001A00002010B51B4800680121084319490E
:10095000086008464068184908401649486008463B
:1009600000681649084013490860084600680121DC
:10097000890488430F490860084640683F210904FC
:1009800088430C4948600846C06A00090001C862F3
:100990000846006BFF215431884306490863084626
:1009A000406B40084000486300208860FFF73CFF30
:1009B00010BD0000001002400CB8FFF8FFFFF6FE6B
:1009C00008B51849184800F08FF8002809D01648D3
:1009D00020308088C1B2009168460178134800F049
:1009E00024FA1349104800F07FF8002819D069460E
:1009F000104800F0F3F9002805D0684600780A494D
:100A00002031088103E05520074920310881094839
:100A100000F0FAF9002804D100220549024800F04C
:100A20008AF808BD0501050000380140DC050020FA
:100A300007010700E8050020002904D0026801230F
:100A40001A43026003E002685208520002607047D5
:100A500000B589B01B216846017000214170012159
:100A60008170FFF71BFD01218804FFF78DFD012137
:100A70008803FFF799FDC0200790022108A80170A4
:100A8000002181700121C1700321417007A9134821
:100A9000FFF796FC002206211048FFF7D9FC002240
:100AA00007210E48FFF7D4FC4B20C0010190002025
:100AB00002900390049006900C20059001A908482C
:100AC00000F05AF801210648FFF7B6FF0122054958
:100AD000034800F030F809B000BD000000040048F1
:100AE000003801400501050070B502460B460024A0
:100AF0000021002500201E04350ED9B201268E40AB
:100B00003146012D02D11668314006E0022D02D196
:100B10005668314001E0966831401C0C0126A64021
:100B20003446D6693440002903D0002C01D001207E
:100B300000E0002070BDF8B50346002400260096B2
:100B40000025002018460E04340ECEB20096012770
:100B5000009EB7403D46022C01D1001D02E0032C4F
:100B600000D10830002A03D006682E43066002E058
:100B70000668AE430660F8BDF0B589B005460E467E
:100B800000240020089000BF00BF286840084000F3
:100B900028606C6803210903204688430446B06836
:100BA00004436C602C682E480440F1687068084368
:100BB0003169084304432C60AC68032109022046D4
:100BC0008843044670690443AC606846FFF714FD2F
:100BD0002448854202D10698089001E002980890C6
:100BE00028680121C903084209D03268510019233D
:100BF000089A5A431046FFF7D3FA074608E03268CE
:100C000091001923089A5A431046FFF7C9FA07467C
:100C100064213846FFF7C4FA0401200964214843DF
:100C2000381A079028680121C90308420AD0079999
:100C3000C900084632306421FFF7B2FA4007400F7E
:100C4000044309E007990901084632306421FFF79F
:100C5000A7FA0007000F0443AC8109B0F0BD000003
:100C6000F3E9FFFF0038014030B47446641E257874
:100C7000641CAB4204D3635D5B00E31830BC1847CF
:100C80001D46F8E7FFB585B00E4617461C46059889
:100C900000F052FA0546FE21684601724472A979B5
:100CA00081721A4801786846C172184841786846CE
:100CB00001734673A879401CA871052102A8013070
:100CC00000F052F804902246394604A800F03BF8A0
:100CD00004A90E9800F025F86846008AC1B268465B
:100CE0000171008A011268464171062202A9059825
:100CF00000F00EF822463946059800F009F8022265
:100D000001A9059800F004F809B0F0BD1200002018
:100D100070B506460C4615462946204600F096FC5E
:100D200070BD10B502460B7853401846030143408E
:100D3000D8B20B881B1204026340C4006340041144
:100D400063400B8010BDF0B504460D4616462F4695
:100D500004E038787F1C2146FFF7E3FF3046711E20
:100D60008EB20028F5D1F0BD38B504460D46684670
:100D700000F00EF804E02078641C6946FFF7D1FF0C
:100D80002846691E8DB20028F5D16846008838BD16
:100D90000021C943018070470146CA880B899A42E5
:100DA00006DB8A88CB88D21A0B89D21890B203E06E
:100DB0000A89CB88D21A90B2704730B50B460360CF
:100DC00082800024C4800481002104E0002405689E
:100DD0006C544C1CA1B29142F8DB30BD0246108924
:100DE000D388984201D10020704713891068C05CF5
:100DF00008701089401C80B210819388984201DBF2
:100E0000002010810120EFE70146CA880B899A4231
:100E100004DBCA880B89D21A90B205E08A880B8954
:100E2000D21ACB88D21890B2704710B502460B4642
:100E3000D188481C80B201469488A04200DB002182
:100E40001089884201D1002010BDD4881068035554
:100E5000D1800120F8E7000010B50446E0790028B1
:100E600006D01E2809D021280CD0A32814D10EE0CA
:100E70000B49204600F0DBF90FE00A49204600F05C
:100E800087F90AE00849204600F0A6F905E007497D
:100E9000204600F059F900E000BF00BF10BD00007F
:100EA000B0040020BC040020D8040020F40400207A
:100EB000FFF78AFB7D21C90022480068FFF770F91F
:100EC0000446601E2049884200D90CE0601E1F497C
:100ED00048610321081FFFF719FB00201B498861A7
:100EE0000720086100BF0021084600F08DFB0020AC
:100EF00017490870487023E000221146104600F0A0
:100F0000E3F900220221104600F0DEF917E0114853
:100F10000088642811DD00200E4908800022114657
:100F2000104600F0D1F900220121104600F0CCF962
:100F300000221421104600F0C7F900F0ABFBE6E7F1
:100F4000DAE700001C000020FFFFFF0000E000E0E7
:100F50001200002018000020FEB507460C4615467A
:100F60001E46384600F0E8F80290384600F0DAF8FD
:100F70002B46224600960190029900F001F8FEBD32
:100F8000FFB581B005460C4616460A9F002000902A
:100F90002070E0780300FFF767FE0B070813332B80
:100FA0003B4351627576900000BFFE2E07D10220B0
:100FB000E0700020E870AE70284600F0D9F97CE0BF
:100FC000207800280AD06078401C6070A078401C0F
:100FD000A070002020700120E07008E0EE7000207A
:100FE00020713146284600F010FA0420E07064E0D9
:100FF0002E713146284600F008FA0320E0705CE0CC
:101000006E713146284600F000FA0520E07054E089
:10101000AE713146284600F0F8F90620E0704CE049
:10102000EE713146284600F0F0F9E878002802D148
:101030000820E07001E00720E0703EE02179481CC4
:1010400020712846083046543146284600F0DDF924
:101050002079E978884201D10820E0702DE0E87914
:101060002F4A115C284600F0D0F92878B04202D00F
:101070000A20E07001E00920E0702179284608305C
:1010800046541AE000BFE0780A2803D028880012EE
:10109000B04202D00220207001E001202070012027
:1010A000E0702079401C294608310E54FF2211328D
:1010B0002946049800F0B1F900BF00BF0098401C19
:1010C00000902078012808D12879607120890028B3
:1010D00000D160812089401C2081E9780498C1708A
:1010E000E078F870207938716079401C7871208937
:1010F0003881A07878810020A070207802280CD157
:10110000217928460830415C2079401C2A46083263
:10111000105C0002014304980180207805B0F0BD06
:10112000DC1600080146FF2011304843014A8018B0
:10113000704700007000002001460C204843014A1F
:10114000801870474000002070B505460C461C22F0
:1011500029460831204600F060F970BDFFB589B01E
:101160000C4615461E46129F029403950496059759
:101170001398069014980790159808907F201C23C8
:1011800002AAA32100900998FFF77CFD0DB0F0BDE5
:1011900070B505460C461C2229460831204600F051
:1011A0003CF970BDFFB589B00C4615461E46129F2E
:1011B0000294039504960597139806901498079047
:1011C0001598089027201C2302AA1E210090099838
:1011D000FFF758FD0DB0F0BD70B505460C461C225A
:1011E00029460831204600F018F970BDFFB589B0D6
:1011F0000C4615461E46129F0294039504960597C9
:101200001398069069461498888368461599C18397
:101210001699018469461798488468201C2302AAFD
:10122000212100900998FFF72DFD0DB0F0BD70B59C
:1012300005460C46092229460831204600F0EDF803
:1012400070BDFFB585B00C4615461E460E9F029731
:1012500068460473457386730F99C1730221017444
:101260003220092302AA002100900598FFF70AFD09
:1012700009B0F0BDFFB581B00D462946049B039A25
:101280000198FFF769FE0646022E1AD10198FFF772
:1012900049FF07460198FFF74FFF0446A078401C1E
:1012A000A070002020700120E070FE2D06D10220E9
:1012B000E0700020F870384600F05AF8002005B0C1
:1012C000F0BD3046FBE70000F7B50E461921009847
:1012D00048432649441813E0E07D215C029A0098B7
:1012E00000F04CF8002800D10DE0E07D401CE075D6
:1012F000E07D172801D10020E075207E401E207679
:10130000207E0028E8D100BF172E00D1FEBD0027A7
:10131000E57D0AE0605DB04200D1F7E7681CC5B228
:10132000172D00D10025781CC7B2207EB842F1DC11
:10133000207E002806D13146029A009800F01EF85F
:10134000002810D1207E172800D1DFE7E07D217E24
:101350004018C5B2172D02DB28461738C5B26655AE
:10136000207E401C207600BFD0E70000A7050020AB
:1013700010B504462046FFF70BFD10BDF8B5064634
:101380000D46174600F038F904B2304600F07EF9F9
:10139000002801D00020F8BD022D1AD004DC002D59
:1013A00007D0012D2DD10CE0122D22D0142D28D1E3
:1013B00017E0092C01DA0020EDE7304600F0D2F802
:1013C00020E01C2C01DA0020E5E7304600F078F838
:1013D00018E01C2C01DA0020DDE7304600F0ECF8C4
:1013E00010E01C2C01DA0020D5E7304600F022F88E
:1013F00008E0332C01DA0020CDE7304600F0F3F8A6
:1014000000E000BF00BF0120C5E770B504460D46EF
:1014100021462846FFF785FC70BD70B503461C4683
:101420000D46002002E02E5C2654401C9042FAD368
:1014300070BD0000F0B587B004462049097B491C07
:10144000C9B21E4A11730846FEF786FF05461B49BE
:10145000C97A491CC9B2194AD1720846FEF77CFF05
:1014600006461649897A491CC9B2144A917208463F
:10147000FEF772FF07461149497A491CC9B20F4A63
:1014800051720846FEF768FF0C490690097A491C1C
:10149000C9B20A4A11720846FEF75EFF05900020A5
:1014A0007F21C9053B460296039500910190204695
:1014B000069A0599FFF752FE07B0F0BD100500200F
:1014C000F1B586B02649C979491CC9B2244AD171FF
:1014D0000846FEF741FF044621498979491CC9B2F3
:1014E0001F4A91710846FEF737FF05461C494979A6
:1014F000491CC9B21A4A51710846FEF72DFF06462B
:1015000017490979491CC9B2154A11710846FEF7F5
:1015100023FF07461249C978491CC9B2104AD17045
:101520000846FEF719FF0E4905908978491CC9B293
:101530000B4A91700846FEF70FFF0097019602953F
:101540000394049006484078401CC0B2044A50708E
:101550000146059B049A0698FFF724FE07B0F0BDEC
:1015600010050020FEB50746012404251148002679
:1015700086571024014600200856C01E0300FFF7BE
:1015800073FB0504070605080B0000BF00BF00BF82
:1015900000BF0820044300BF00BF00BF4120044338
:1015A000234603220221384600960195FFF749FEA3
:1015B000FEBD00000000002010B586B004460920E2
:1015C0000821072206230293039204910590052027
:1015D0000421032302220091019001212046FFF7FC
:1015E00005FE06B010BD704710B50248FFF70CFCB1
:1015F00010BD0000DC05002010B50248FFF7CCFB51
:1016000010BD0000E805002070B504460D46FF221D
:1016100005490648FFF7D1FBFF2205490548FFF7BA
:10162000CCFBFFF715FA70BDF4050020E80500209B
:10163000F3060020DC05002008B569460248FFF7E4
:10164000CDFB6846007808BDDC05002070B5064675
:101650000C46002C01D1002070BD002507E0715D13
:101660000748FFF7E2FB601E84B2681C85B2002CBD
:10167000F5DC012203490448FFF75DFA0120EBE79E
:10168000E80500200701070000380140014600205E
:101690007047000010B5C8B000206946C88112E04C
:1016A000FFF7CAFF044601AB04AA214609480078A7
:1016B000FFF7E0FD002805D001200749087004A8C5
:1016C000FFF7CAFB00BFFFF78FFF0028E8D148B043
:1016D00010BD0000010000200400002032000000C6
:1016E00000000000000000000000000000000000FA
:1016F000000000000000000000002700006800005B
:1017000000000000000000000000000000000000D9
:1017100000000000000000000000000000000000C9
:1017200000000000000000000000000000000000B9
:1017300000000000000000000000000000000000A9
:101740000000000000000000000000000000000099
:101750000000000000000000000000000000000089
:101760000000000000000000000000000000000079
:101770000000000000000000000000000000007FEA
:101780000000000000000000000000000000000059
:101790000000000000000000000000000000000049
:1017A0000000000000000000000000000000000039
:1017B0000000000000000000000000000000000029
:1017C0000000000000000000000000000000000019
:1017D000000000000000000000000000FC170008EE
:1017E0000000002040000000040100083C18000830
:1017F00040000020180E000020010008000000003A
:10180000000000000102030405060708090A0000A1
:101810000000000000000000006CDC02000000007E
:101820000000000001020304060708090000000090
:0C1830000102030401020304060708097A
:04000005080000C12E
:00000001FF
